{
  "contractName": "Vote",
  "abi": [
    {
      "constant": true,
      "inputs": [],
      "name": "name",
      "outputs": [
        {
          "name": "",
          "type": "string"
        }
      ],
      "payable": false,
      "stateMutability": "view",
      "type": "function",
      "signature": "0x06fdde03"
    },
    {
      "constant": false,
      "inputs": [
        {
          "name": "spender",
          "type": "address"
        },
        {
          "name": "value",
          "type": "uint256"
        }
      ],
      "name": "approve",
      "outputs": [
        {
          "name": "",
          "type": "bool"
        }
      ],
      "payable": false,
      "stateMutability": "nonpayable",
      "type": "function",
      "signature": "0x095ea7b3"
    },
    {
      "constant": true,
      "inputs": [],
      "name": "balanceOfMe",
      "outputs": [
        {
          "name": "",
          "type": "uint256"
        }
      ],
      "payable": false,
      "stateMutability": "view",
      "type": "function",
      "signature": "0x0eb2b9c9"
    },
    {
      "constant": true,
      "inputs": [],
      "name": "totalSupply",
      "outputs": [
        {
          "name": "",
          "type": "uint256"
        }
      ],
      "payable": false,
      "stateMutability": "view",
      "type": "function",
      "signature": "0x18160ddd"
    },
    {
      "constant": false,
      "inputs": [
        {
          "name": "sender",
          "type": "address"
        },
        {
          "name": "recipient",
          "type": "address"
        },
        {
          "name": "amount",
          "type": "uint256"
        }
      ],
      "name": "transferFrom",
      "outputs": [
        {
          "name": "",
          "type": "bool"
        }
      ],
      "payable": false,
      "stateMutability": "nonpayable",
      "type": "function",
      "signature": "0x23b872dd"
    },
    {
      "constant": true,
      "inputs": [
        {
          "name": "",
          "type": "uint256"
        }
      ],
      "name": "candidates",
      "outputs": [
        {
          "name": "name",
          "type": "string"
        },
        {
          "name": "addr",
          "type": "address"
        },
        {
          "name": "manifesto",
          "type": "string"
        },
        {
          "name": "voteCount",
          "type": "uint256"
        }
      ],
      "payable": false,
      "stateMutability": "view",
      "type": "function",
      "signature": "0x3477ee2e"
    },
    {
      "constant": false,
      "inputs": [
        {
          "name": "spender",
          "type": "address"
        },
        {
          "name": "addedValue",
          "type": "uint256"
        }
      ],
      "name": "increaseAllowance",
      "outputs": [
        {
          "name": "",
          "type": "bool"
        }
      ],
      "payable": false,
      "stateMutability": "nonpayable",
      "type": "function",
      "signature": "0x39509351"
    },
    {
      "constant": true,
      "inputs": [],
      "name": "elected",
      "outputs": [
        {
          "name": "name",
          "type": "string"
        },
        {
          "name": "addr",
          "type": "address"
        },
        {
          "name": "manifesto",
          "type": "string"
        },
        {
          "name": "voteCount",
          "type": "uint256"
        }
      ],
      "payable": false,
      "stateMutability": "view",
      "type": "function",
      "signature": "0x5f82128f"
    },
    {
      "constant": true,
      "inputs": [
        {
          "name": "account",
          "type": "address"
        }
      ],
      "name": "balanceOf",
      "outputs": [
        {
          "name": "",
          "type": "uint256"
        }
      ],
      "payable": false,
      "stateMutability": "view",
      "type": "function",
      "signature": "0x70a08231"
    },
    {
      "constant": true,
      "inputs": [],
      "name": "owner",
      "outputs": [
        {
          "name": "",
          "type": "address"
        }
      ],
      "payable": false,
      "stateMutability": "view",
      "type": "function",
      "signature": "0x8da5cb5b"
    },
    {
      "constant": true,
      "inputs": [],
      "name": "symbol",
      "outputs": [
        {
          "name": "",
          "type": "string"
        }
      ],
      "payable": false,
      "stateMutability": "view",
      "type": "function",
      "signature": "0x95d89b41"
    },
    {
      "constant": false,
      "inputs": [
        {
          "name": "spender",
          "type": "address"
        },
        {
          "name": "subtractedValue",
          "type": "uint256"
        }
      ],
      "name": "decreaseAllowance",
      "outputs": [
        {
          "name": "",
          "type": "bool"
        }
      ],
      "payable": false,
      "stateMutability": "nonpayable",
      "type": "function",
      "signature": "0xa457c2d7"
    },
    {
      "constant": false,
      "inputs": [
        {
          "name": "recipient",
          "type": "address"
        },
        {
          "name": "amount",
          "type": "uint256"
        }
      ],
      "name": "transfer",
      "outputs": [
        {
          "name": "",
          "type": "bool"
        }
      ],
      "payable": false,
      "stateMutability": "nonpayable",
      "type": "function",
      "signature": "0xa9059cbb"
    },
    {
      "constant": true,
      "inputs": [],
      "name": "phase",
      "outputs": [
        {
          "name": "",
          "type": "uint8"
        }
      ],
      "payable": false,
      "stateMutability": "view",
      "type": "function",
      "signature": "0xb1c9fe6e"
    },
    {
      "constant": true,
      "inputs": [
        {
          "name": "owner",
          "type": "address"
        },
        {
          "name": "spender",
          "type": "address"
        }
      ],
      "name": "allowance",
      "outputs": [
        {
          "name": "",
          "type": "uint256"
        }
      ],
      "payable": false,
      "stateMutability": "view",
      "type": "function",
      "signature": "0xdd62ed3e"
    },
    {
      "inputs": [],
      "payable": true,
      "stateMutability": "payable",
      "type": "constructor",
      "signature": "constructor"
    },
    {
      "anonymous": false,
      "inputs": [
        {
          "indexed": true,
          "name": "from",
          "type": "address"
        },
        {
          "indexed": true,
          "name": "to",
          "type": "address"
        },
        {
          "indexed": false,
          "name": "value",
          "type": "uint256"
        }
      ],
      "name": "Transfer",
      "type": "event",
      "signature": "0xddf252ad1be2c89b69c2b068fc378daa952ba7f163c4a11628f55a4df523b3ef"
    },
    {
      "anonymous": false,
      "inputs": [
        {
          "indexed": true,
          "name": "owner",
          "type": "address"
        },
        {
          "indexed": true,
          "name": "spender",
          "type": "address"
        },
        {
          "indexed": false,
          "name": "value",
          "type": "uint256"
        }
      ],
      "name": "Approval",
      "type": "event",
      "signature": "0x8c5be1e5ebec7d5bd14f71427d1e84f3dd0314c0f7b2291e5b200ac8c7c3b925"
    },
    {
      "constant": false,
      "inputs": [
        {
          "name": "_p",
          "type": "uint8"
        }
      ],
      "name": "changePhase",
      "outputs": [],
      "payable": false,
      "stateMutability": "nonpayable",
      "type": "function",
      "signature": "0x0721c297"
    },
    {
      "constant": false,
      "inputs": [],
      "name": "deposit",
      "outputs": [],
      "payable": true,
      "stateMutability": "payable",
      "type": "function",
      "signature": "0xd0e30db0"
    },
    {
      "constant": false,
      "inputs": [
        {
          "name": "_addr",
          "type": "address"
        }
      ],
      "name": "registMember",
      "outputs": [],
      "payable": false,
      "stateMutability": "nonpayable",
      "type": "function",
      "signature": "0xc71dbade"
    },
    {
      "constant": false,
      "inputs": [
        {
          "name": "_name",
          "type": "string"
        },
        {
          "name": "_manifesto",
          "type": "string"
        },
        {
          "name": "_passhex",
          "type": "bytes32"
        }
      ],
      "name": "registCandidate",
      "outputs": [],
      "payable": false,
      "stateMutability": "nonpayable",
      "type": "function",
      "signature": "0x2c82d23a"
    },
    {
      "constant": false,
      "inputs": [
        {
          "name": "recipient",
          "type": "address"
        }
      ],
      "name": "sendToken",
      "outputs": [],
      "payable": false,
      "stateMutability": "nonpayable",
      "type": "function",
      "signature": "0xc575c238"
    },
    {
      "constant": true,
      "inputs": [],
      "name": "getCandidatesCount",
      "outputs": [
        {
          "name": "",
          "type": "uint256"
        }
      ],
      "payable": false,
      "stateMutability": "view",
      "type": "function",
      "signature": "0xbb9aa28f"
    },
    {
      "constant": false,
      "inputs": [
        {
          "name": "_addr",
          "type": "address"
        }
      ],
      "name": "vote",
      "outputs": [],
      "payable": false,
      "stateMutability": "nonpayable",
      "type": "function",
      "signature": "0x6dd7d8ea"
    },
    {
      "constant": false,
      "inputs": [],
      "name": "countVote",
      "outputs": [],
      "payable": false,
      "stateMutability": "nonpayable",
      "type": "function",
      "signature": "0x1a6cd2fd"
    },
    {
      "constant": true,
      "inputs": [],
      "name": "getElectedName",
      "outputs": [
        {
          "name": "",
          "type": "string"
        }
      ],
      "payable": false,
      "stateMutability": "view",
      "type": "function",
      "signature": "0x3ab7d304"
    },
    {
      "constant": true,
      "inputs": [],
      "name": "checkPoliticalFundsBalance",
      "outputs": [
        {
          "name": "",
          "type": "uint256"
        }
      ],
      "payable": false,
      "stateMutability": "view",
      "type": "function",
      "signature": "0x1633d3c8"
    },
    {
      "constant": false,
      "inputs": [],
      "name": "withdrawPoliticalFunds",
      "outputs": [],
      "payable": false,
      "stateMutability": "nonpayable",
      "type": "function",
      "signature": "0xe99cfe0d"
    },
    {
      "constant": false,
      "inputs": [],
      "name": "charge",
      "outputs": [],
      "payable": true,
      "stateMutability": "payable",
      "type": "function",
      "signature": "0x55161913"
    }
  ],
  "bytecode": "0x60806040526000600560006101000a81548160ff021916908360038111156200002457fe5b02179055506040805190810160405280600381526020017f5652540000000000000000000000000000000000000000000000000000000000815250600390805190602001906200007692919062000392565b506040805190810160405280601381526020017f566f74696e672052726967687420546f6b656e0000000000000000000000000081525060049080519060200190620000c492919062000392565b50620000e23361138862000129640100000000026401000000009004565b33600560016101000a81548173ffffffffffffffffffffffffffffffffffffffff021916908373ffffffffffffffffffffffffffffffffffffffff16021790555062000441565b600073ffffffffffffffffffffffffffffffffffffffff168273ffffffffffffffffffffffffffffffffffffffff1614151515620001cf576040517f08c379a000000000000000000000000000000000000000000000000000000000815260040180806020018281038252601f8152602001807f45524332303a206d696e7420746f20746865207a65726f20616464726573730081525060200191505060405180910390fd5b620001f4816002546200030764010000000002620027b0179091906401000000009004565b6002819055506200025b816000808573ffffffffffffffffffffffffffffffffffffffff1673ffffffffffffffffffffffffffffffffffffffff168152602001908152602001600020546200030764010000000002620027b0179091906401000000009004565b6000808473ffffffffffffffffffffffffffffffffffffffff1673ffffffffffffffffffffffffffffffffffffffff168152602001908152602001600020819055508173ffffffffffffffffffffffffffffffffffffffff16600073ffffffffffffffffffffffffffffffffffffffff167fddf252ad1be2c89b69c2b068fc378daa952ba7f163c4a11628f55a4df523b3ef836040518082815260200191505060405180910390a35050565b600080828401905083811015151562000388576040517f08c379a000000000000000000000000000000000000000000000000000000000815260040180806020018281038252601b8152602001807f536166654d6174683a206164646974696f6e206f766572666c6f77000000000081525060200191505060405180910390fd5b8091505092915050565b828054600181600116156101000203166002900490600052602060002090601f016020900481019282601f10620003d557805160ff191683800117855562000406565b8280016001018555821562000406579182015b8281111562000405578251825591602001919060010190620003e8565b5b50905062000415919062000419565b5090565b6200043e91905b808211156200043a57600081600090555060010162000420565b5090565b90565b612a2080620004516000396000f3fe6080604052600436106101b9576000357c0100000000000000000000000000000000000000000000000000000000900480635f82128f11610109578063b1c9fe6e116100a7578063c71dbade11610081578063c71dbade14610c68578063d0e30db014610cb9578063dd62ed3e14610cc3578063e99cfe0d14610d48576101b9565b8063b1c9fe6e14610bb3578063bb9aa28f14610bec578063c575c23814610c17576101b9565b80638da5cb5b116100e35780638da5cb5b146109e657806395d89b4114610a3d578063a457c2d714610acd578063a9059cbb14610b40576101b9565b80635f82128f146107fa5780636dd7d8ea1461093057806370a0823114610981576101b9565b80631a6cd2fd116101765780633477ee2e116101505780633477ee2e1461059357806339509351146106ed5780633ab7d3041461076057806355161913146107f0576101b9565b80631a6cd2fd1461038057806323b872dd146103975780632c82d23a1461042a576101b9565b806306fdde03146101be5780630721c2971461024e578063095ea7b31461028c5780630eb2b9c9146102ff5780631633d3c81461032a57806318160ddd14610355575b600080fd5b3480156101ca57600080fd5b506101d3610d5f565b6040518080602001828103825283818151815260200191508051906020019080838360005b838110156102135780820151818401526020810190506101f8565b50505050905090810190601f1680156102405780820380516001836020036101000a031916815260200191505b509250505060405180910390f35b34801561025a57600080fd5b5061028a6004803603602081101561027157600080fd5b81019080803560ff169060200190929190505050610dfd565b005b34801561029857600080fd5b506102e5600480360360408110156102af57600080fd5b81019080803573ffffffffffffffffffffffffffffffffffffffff16906020019092919080359060200190929190505050610f84565b604051808215151515815260200191505060405180910390f35b34801561030b57600080fd5b50610314610f9b565b6040518082815260200191505060405180910390f35b34801561033657600080fd5b5061033f610fab565b6040518082815260200191505060405180910390f35b34801561036157600080fd5b5061036a610fca565b6040518082815260200191505060405180910390f35b34801561038c57600080fd5b50610395610fd4565b005b3480156103a357600080fd5b50610410600480360360608110156103ba57600080fd5b81019080803573ffffffffffffffffffffffffffffffffffffffff169060200190929190803573ffffffffffffffffffffffffffffffffffffffff169060200190929190803590602001909291905050506111c8565b604051808215151515815260200191505060405180910390f35b34801561043657600080fd5b506105916004803603606081101561044d57600080fd5b810190808035906020019064010000000081111561046a57600080fd5b82018360208201111561047c57600080fd5b8035906020019184600183028401116401000000008311171561049e57600080fd5b91908080601f016020809104026020016040519081016040528093929190818152602001838380828437600081840152601f19601f8201169050808301925050505050505091929192908035906020019064010000000081111561050157600080fd5b82018360208201111561051357600080fd5b8035906020019184600183028401116401000000008311171561053557600080fd5b91908080601f016020809104026020016040519081016040528093929190818152602001838380828437600081840152601f19601f82011690508083019250505050505050919291929080359060200190929190505050611279565b005b34801561059f57600080fd5b506105cc600480360360208110156105b657600080fd5b8101908080359060200190929190505050611661565b60405180806020018573ffffffffffffffffffffffffffffffffffffffff1673ffffffffffffffffffffffffffffffffffffffff16815260200180602001848152602001838103835287818151815260200191508051906020019080838360005b8381101561064857808201518184015260208101905061062d565b50505050905090810190601f1680156106755780820380516001836020036101000a031916815260200191505b50838103825285818151815260200191508051906020019080838360005b838110156106ae578082015181840152602081019050610693565b50505050905090810190601f1680156106db5780820380516001836020036101000a031916815260200191505b50965050505050505060405180910390f35b3480156106f957600080fd5b506107466004803603604081101561071057600080fd5b81019080803573ffffffffffffffffffffffffffffffffffffffff169060200190929190803590602001909291905050506117f0565b604051808215151515815260200191505060405180910390f35b34801561076c57600080fd5b50610775611895565b6040518080602001828103825283818151815260200191508051906020019080838360005b838110156107b557808201518184015260208101905061079a565b50505050905090810190601f1680156107e25780820380516001836020036101000a031916815260200191505b509250505060405180910390f35b6107f861193a565b005b34801561080657600080fd5b5061080f61193c565b60405180806020018573ffffffffffffffffffffffffffffffffffffffff1673ffffffffffffffffffffffffffffffffffffffff16815260200180602001848152602001838103835287818151815260200191508051906020019080838360005b8381101561088b578082015181840152602081019050610870565b50505050905090810190601f1680156108b85780820380516001836020036101000a031916815260200191505b50838103825285818151815260200191508051906020019080838360005b838110156108f15780820151818401526020810190506108d6565b50505050905090810190601f16801561091e5780820380516001836020036101000a031916815260200191505b50965050505050505060405180910390f35b34801561093c57600080fd5b5061097f6004803603602081101561095357600080fd5b81019080803573ffffffffffffffffffffffffffffffffffffffff169060200190929190505050611aaa565b005b34801561098d57600080fd5b506109d0600480360360208110156109a457600080fd5b81019080803573ffffffffffffffffffffffffffffffffffffffff169060200190929190505050611de1565b6040518082815260200191505060405180910390f35b3480156109f257600080fd5b506109fb611e29565b604051808273ffffffffffffffffffffffffffffffffffffffff1673ffffffffffffffffffffffffffffffffffffffff16815260200191505060405180910390f35b348015610a4957600080fd5b50610a52611e4f565b6040518080602001828103825283818151815260200191508051906020019080838360005b83811015610a92578082015181840152602081019050610a77565b50505050905090810190601f168015610abf5780820380516001836020036101000a031916815260200191505b509250505060405180910390f35b348015610ad957600080fd5b50610b2660048036036040811015610af057600080fd5b81019080803573ffffffffffffffffffffffffffffffffffffffff16906020019092919080359060200190929190505050611eed565b604051808215151515815260200191505060405180910390f35b348015610b4c57600080fd5b50610b9960048036036040811015610b6357600080fd5b81019080803573ffffffffffffffffffffffffffffffffffffffff16906020019092919080359060200190929190505050611f92565b604051808215151515815260200191505060405180910390f35b348015610bbf57600080fd5b50610bc8611fa9565b60405180826003811115610bd857fe5b60ff16815260200191505060405180910390f35b348015610bf857600080fd5b50610c01611fbc565b6040518082815260200191505060405180910390f35b348015610c2357600080fd5b50610c6660048036036020811015610c3a57600080fd5b81019080803573ffffffffffffffffffffffffffffffffffffffff169060200190929190505050611fc9565b005b348015610c7457600080fd5b50610cb760048036036020811015610c8b57600080fd5b81019080803573ffffffffffffffffffffffffffffffffffffffff169060200190929190505050611fd8565b005b610cc1612033565b005b348015610ccf57600080fd5b50610d3260048036036040811015610ce657600080fd5b81019080803573ffffffffffffffffffffffffffffffffffffffff169060200190929190803573ffffffffffffffffffffffffffffffffffffffff1690602001909291905050506120db565b6040518082815260200191505060405180910390f35b348015610d5457600080fd5b50610d5d612162565b005b60048054600181600116156101000203166002900480601f016020809104026020016040519081016040528092919081815260200182805460018160011615610100020316600290048015610df55780601f10610dca57610100808354040283529160200191610df5565b820191906000526020600020905b815481529060010190602001808311610dd857829003601f168201915b505050505081565b3373ffffffffffffffffffffffffffffffffffffffff16600560019054906101000a900473ffffffffffffffffffffffffffffffffffffffff1673ffffffffffffffffffffffffffffffffffffffff16141515610ec2576040517f08c379a000000000000000000000000000000000000000000000000000000000815260040180806020018281038252600a8152602001807f6f776e6572206572722e0000000000000000000000000000000000000000000081525060200191505060405180910390fd5b806003811115610ece57fe5b600560009054906101000a900460ff166003811115610ee957fe5b101515610f5e576040517f08c379a000000000000000000000000000000000000000000000000000000000815260040180806020018281038252600a8152602001807f7068617365206572722e0000000000000000000000000000000000000000000081525060200191505060405180910390fd5b80600560006101000a81548160ff02191690836003811115610f7c57fe5b021790555050565b6000610f9133848461228a565b6001905092915050565b6000610fa633611de1565b905090565b60003073ffffffffffffffffffffffffffffffffffffffff1631905090565b6000600254905090565b600380811115610fe057fe5b600560009054906101000a900460ff166003811115610ffb57fe5b141515611070576040517f08c379a000000000000000000000000000000000000000000000000000000000815260040180806020018281038252600a8152602001807f7068617365206572722e0000000000000000000000000000000000000000000081525060200191505060405180910390fd5b600080905060008090505b6006805490508110156111c4578160068281548110151561109857fe5b90600052602060002090600402016003015411156111b7576006818154811015156110bf57fe5b90600052602060002090600402016003015491506006818154811015156110e257fe5b906000526020600020906004020160076000820181600001908054600181600116156101000203166002900461111992919061283a565b506001820160009054906101000a900473ffffffffffffffffffffffffffffffffffffffff168160010160006101000a81548173ffffffffffffffffffffffffffffffffffffffff021916908373ffffffffffffffffffffffffffffffffffffffff160217905550600282018160020190805460018160011615610100020316600290046111a892919061283a565b50600382015481600301559050505b808060010191505061107b565b5050565b60006111d5848484612485565b61126e843361126985600160008a73ffffffffffffffffffffffffffffffffffffffff1673ffffffffffffffffffffffffffffffffffffffff16815260200190815260200160002060003373ffffffffffffffffffffffffffffffffffffffff1673ffffffffffffffffffffffffffffffffffffffff1681526020019081526020016000205461272590919063ffffffff16565b61228a565b600190509392505050565b6001600381111561128657fe5b600560009054906101000a900460ff1660038111156112a157fe5b141515611316576040517f08c379a000000000000000000000000000000000000000000000000000000000815260040180806020018281038252600a8152602001807f7068617365206572722e0000000000000000000000000000000000000000000081525060200191505060405180910390fd5b60001515600b60003373ffffffffffffffffffffffffffffffffffffffff1673ffffffffffffffffffffffffffffffffffffffff16815260200190815260200160002060009054906101000a900460ff1615151415156113de576040517f08c379a00000000000000000000000000000000000000000000000000000000081526004018080602001828103825260138152602001807f616c726561647920726567697374206572722e0000000000000000000000000081525060200191505060405180910390fd5b60011515600e60003373ffffffffffffffffffffffffffffffffffffffff1673ffffffffffffffffffffffffffffffffffffffff16815260200190815260200160002060009054906101000a900460ff1615151415156114a6576040517f08c379a000000000000000000000000000000000000000000000000000000000815260040180806020018281038252600c8152602001807f6d656d62657273206572722e000000000000000000000000000000000000000081525060200191505060405180910390fd5b60066080604051908101604052808581526020013373ffffffffffffffffffffffffffffffffffffffff16815260200184815260200160008152509080600181540180825580915050906001820390600052602060002090600402016000909192909190915060008201518160000190805190602001906115289291906128c1565b5060208201518160010160006101000a81548173ffffffffffffffffffffffffffffffffffffffff021916908373ffffffffffffffffffffffffffffffffffffffff160217905550604082015181600201908051906020019061158c9291906128c1565b5060608201518160030155505050806040516020018082815260200191505060405160208183030381529060405280519060200120600d60003373ffffffffffffffffffffffffffffffffffffffff1673ffffffffffffffffffffffffffffffffffffffff168152602001908152602001600020819055506001600b60003373ffffffffffffffffffffffffffffffffffffffff1673ffffffffffffffffffffffffffffffffffffffff16815260200190815260200160002060006101000a81548160ff021916908315150217905550505050565b60068181548110151561167057fe5b9060005260206000209060040201600091509050806000018054600181600116156101000203166002900480601f01602080910402602001604051908101604052809291908181526020018280546001816001161561010002031660029004801561171c5780601f106116f15761010080835404028352916020019161171c565b820191906000526020600020905b8154815290600101906020018083116116ff57829003601f168201915b5050505050908060010160009054906101000a900473ffffffffffffffffffffffffffffffffffffffff1690806002018054600181600116156101000203166002900480601f0160208091040260200160405190810160405280929190818152602001828054600181600116156101000203166002900480156117e05780601f106117b5576101008083540402835291602001916117e0565b820191906000526020600020905b8154815290600101906020018083116117c357829003601f168201915b5050505050908060030154905084565b600061188b338461188685600160003373ffffffffffffffffffffffffffffffffffffffff1673ffffffffffffffffffffffffffffffffffffffff16815260200190815260200160002060008973ffffffffffffffffffffffffffffffffffffffff1673ffffffffffffffffffffffffffffffffffffffff168152602001908152602001600020546127b090919063ffffffff16565b61228a565b6001905092915050565b606060076000018054600181600116156101000203166002900480601f0160208091040260200160405190810160405280929190818152602001828054600181600116156101000203166002900480156119305780601f1061190557610100808354040283529160200191611930565b820191906000526020600020905b81548152906001019060200180831161191357829003601f168201915b5050505050905090565b565b6007806000018054600181600116156101000203166002900480601f0160208091040260200160405190810160405280929190818152602001828054600181600116156101000203166002900480156119d65780601f106119ab576101008083540402835291602001916119d6565b820191906000526020600020905b8154815290600101906020018083116119b957829003601f168201915b5050505050908060010160009054906101000a900473ffffffffffffffffffffffffffffffffffffffff1690806002018054600181600116156101000203166002900480601f016020809104026020016040519081016040528092919081815260200182805460018160011615610100020316600290048015611a9a5780601f10611a6f57610100808354040283529160200191611a9a565b820191906000526020600020905b815481529060010190602001808311611a7d57829003601f168201915b5050505050908060030154905084565b60026003811115611ab757fe5b600560009054906101000a900460ff166003811115611ad257fe5b141515611b47576040517f08c379a000000000000000000000000000000000000000000000000000000000815260040180806020018281038252600a8152602001807f7068617365206572722e0000000000000000000000000000000000000000000081525060200191505060405180910390fd5b6000611b51610f9b565b14151515611bc7576040517f08c379a000000000000000000000000000000000000000000000000000000000815260040180806020018281038252600a8152602001807f746f6b656e206572722e0000000000000000000000000000000000000000000081525060200191505060405180910390fd5b60001515600c60003373ffffffffffffffffffffffffffffffffffffffff1673ffffffffffffffffffffffffffffffffffffffff16815260200190815260200160002060009054906101000a900460ff161515141515611c8f576040517f08c379a000000000000000000000000000000000000000000000000000000000815260040180806020018281038252600e8152602001807f616c726561647920766f7465642e00000000000000000000000000000000000081525060200191505060405180910390fd5b60008090505b600680549050811015611ddc578173ffffffffffffffffffffffffffffffffffffffff16600682815481101515611cc857fe5b906000526020600020906004020160010160009054906101000a900473ffffffffffffffffffffffffffffffffffffffff1673ffffffffffffffffffffffffffffffffffffffff161415611dcf57600681815481101515611d2557fe5b9060005260206000209060040201600301600081548092919060010191905055506001600c60003373ffffffffffffffffffffffffffffffffffffffff1673ffffffffffffffffffffffffffffffffffffffff16815260200190815260200160002060006101000a81548160ff021916908315150217905550611dc9600560019054906101000a900473ffffffffffffffffffffffffffffffffffffffff16611fc9565b50611dde565b8080600101915050611c95565b505b50565b60008060008373ffffffffffffffffffffffffffffffffffffffff1673ffffffffffffffffffffffffffffffffffffffff168152602001908152602001600020549050919050565b600560019054906101000a900473ffffffffffffffffffffffffffffffffffffffff1681565b60038054600181600116156101000203166002900480601f016020809104026020016040519081016040528092919081815260200182805460018160011615610100020316600290048015611ee55780601f10611eba57610100808354040283529160200191611ee5565b820191906000526020600020905b815481529060010190602001808311611ec857829003601f168201915b505050505081565b6000611f883384611f8385600160003373ffffffffffffffffffffffffffffffffffffffff1673ffffffffffffffffffffffffffffffffffffffff16815260200190815260200160002060008973ffffffffffffffffffffffffffffffffffffffff1673ffffffffffffffffffffffffffffffffffffffff1681526020019081526020016000205461272590919063ffffffff16565b61228a565b6001905092915050565b6000611f9f338484612485565b6001905092915050565b600560009054906101000a900460ff1681565b6000600680549050905090565b611fd4816001611f92565b5050565b6001600e60008373ffffffffffffffffffffffffffffffffffffffff1673ffffffffffffffffffffffffffffffffffffffff16815260200190815260200160002060006101000a81548160ff02191690831515021790555050565b6001600381111561204057fe5b600560009054906101000a900460ff16600381111561205b57fe5b1415156120d0576040517f08c379a000000000000000000000000000000000000000000000000000000000815260040180806020018281038252600a8152602001807f7068617365206572722e0000000000000000000000000000000000000000000081525060200191505060405180910390fd5b6120d933611fd8565b565b6000600160008473ffffffffffffffffffffffffffffffffffffffff1673ffffffffffffffffffffffffffffffffffffffff16815260200190815260200160002060008373ffffffffffffffffffffffffffffffffffffffff1673ffffffffffffffffffffffffffffffffffffffff16815260200190815260200160002054905092915050565b3373ffffffffffffffffffffffffffffffffffffffff16600760010160009054906101000a900473ffffffffffffffffffffffffffffffffffffffff1673ffffffffffffffffffffffffffffffffffffffff1614151561222a576040517f08c379a000000000000000000000000000000000000000000000000000000000815260040180806020018281038252601a8152602001807f7769746864726177206f6e6c7920656c6563746564206572722e00000000000081525060200191505060405180910390fd5b3373ffffffffffffffffffffffffffffffffffffffff166108fc3073ffffffffffffffffffffffffffffffffffffffff16319081150290604051600060405180830381858888f19350505050158015612287573d6000803e3d6000fd5b50565b600073ffffffffffffffffffffffffffffffffffffffff168373ffffffffffffffffffffffffffffffffffffffff1614151515612312576040517f08c379a00000000000000000000000000000000000000000000000000000000081526004018080602001828103825260248152602001806129d16024913960400191505060405180910390fd5b600073ffffffffffffffffffffffffffffffffffffffff168273ffffffffffffffffffffffffffffffffffffffff161415151561239a576040517f08c379a000000000000000000000000000000000000000000000000000000000815260040180806020018281038252602281526020018061298a6022913960400191505060405180910390fd5b80600160008573ffffffffffffffffffffffffffffffffffffffff1673ffffffffffffffffffffffffffffffffffffffff16815260200190815260200160002060008473ffffffffffffffffffffffffffffffffffffffff1673ffffffffffffffffffffffffffffffffffffffff168152602001908152602001600020819055508173ffffffffffffffffffffffffffffffffffffffff168373ffffffffffffffffffffffffffffffffffffffff167f8c5be1e5ebec7d5bd14f71427d1e84f3dd0314c0f7b2291e5b200ac8c7c3b925836040518082815260200191505060405180910390a3505050565b600073ffffffffffffffffffffffffffffffffffffffff168373ffffffffffffffffffffffffffffffffffffffff161415151561250d576040517f08c379a00000000000000000000000000000000000000000000000000000000081526004018080602001828103825260258152602001806129ac6025913960400191505060405180910390fd5b600073ffffffffffffffffffffffffffffffffffffffff168273ffffffffffffffffffffffffffffffffffffffff1614151515612595576040517f08c379a00000000000000000000000000000000000000000000000000000000081526004018080602001828103825260238152602001806129676023913960400191505060405180910390fd5b6125e6816000808673ffffffffffffffffffffffffffffffffffffffff1673ffffffffffffffffffffffffffffffffffffffff1681526020019081526020016000205461272590919063ffffffff16565b6000808573ffffffffffffffffffffffffffffffffffffffff1673ffffffffffffffffffffffffffffffffffffffff16815260200190815260200160002081905550612679816000808573ffffffffffffffffffffffffffffffffffffffff1673ffffffffffffffffffffffffffffffffffffffff168152602001908152602001600020546127b090919063ffffffff16565b6000808473ffffffffffffffffffffffffffffffffffffffff1673ffffffffffffffffffffffffffffffffffffffff168152602001908152602001600020819055508173ffffffffffffffffffffffffffffffffffffffff168373ffffffffffffffffffffffffffffffffffffffff167fddf252ad1be2c89b69c2b068fc378daa952ba7f163c4a11628f55a4df523b3ef836040518082815260200191505060405180910390a3505050565b600082821115151561279f576040517f08c379a000000000000000000000000000000000000000000000000000000000815260040180806020018281038252601e8152602001807f536166654d6174683a207375627472616374696f6e206f766572666c6f77000081525060200191505060405180910390fd5b600082840390508091505092915050565b6000808284019050838110151515612830576040517f08c379a000000000000000000000000000000000000000000000000000000000815260040180806020018281038252601b8152602001807f536166654d6174683a206164646974696f6e206f766572666c6f77000000000081525060200191505060405180910390fd5b8091505092915050565b828054600181600116156101000203166002900490600052602060002090601f016020900481019282601f1061287357805485556128b0565b828001600101855582156128b057600052602060002091601f016020900482015b828111156128af578254825591600101919060010190612894565b5b5090506128bd9190612941565b5090565b828054600181600116156101000203166002900490600052602060002090601f016020900481019282601f1061290257805160ff1916838001178555612930565b82800160010185558215612930579182015b8281111561292f578251825591602001919060010190612914565b5b50905061293d9190612941565b5090565b61296391905b8082111561295f576000816000905550600101612947565b5090565b9056fe45524332303a207472616e7366657220746f20746865207a65726f206164647265737345524332303a20617070726f766520746f20746865207a65726f206164647265737345524332303a207472616e736665722066726f6d20746865207a65726f206164647265737345524332303a20617070726f76652066726f6d20746865207a65726f2061646472657373a165627a7a72305820e7d1b53e25b149dcdc1f3772c45349217cdc6952211a33ec3b77fa0c877685f30029",
  "source": "pragma solidity >=0.4.22 <0.6.0;\r\n\r\nimport \"./ERC20_token.sol\";\r\n\r\ncontract Vote is VRToken{\r\n    struct Candidate {\r\n        string name;\r\n        address addr;\r\n        string manifesto;\r\n        uint voteCount;\r\n    }\r\n    enum Phase { Init, Regist, Vote, Result }\r\n    Phase public phase = Phase.Init;\r\n    address public owner;\r\n    Candidate[] public candidates;\r\n    Candidate public elected;\r\n    mapping(address=>bool) registerd;\r\n    mapping(address=>bool) voted;\r\n    mapping(address=>bytes32) passhash;\r\n    mapping(address=>bool) members;\r\n\r\n    constructor() payable public {\r\n        owner = msg.sender;\r\n    }\r\n\r\n    function changePhase(Phase _p) public {\r\n        require(owner == msg.sender, \"owner err.\");\r\n        require(phase < _p,\"phase err.\");\r\n        phase = _p;\r\n    }\r\n\r\n    function deposit() payable public{\r\n        require(phase == Phase.Regist, \"phase err.\");\r\n        registMember(msg.sender);\r\n    }\r\n\r\n    function registMember(address _addr) public{\r\n        members[_addr] = true;\r\n    }\r\n\r\n    function registCandidate(string memory _name, string memory _manifesto, bytes32 _passhex) public {\r\n        require(phase == Phase.Regist, \"phase err.\");\r\n        require(registerd[msg.sender] == false, \"already regist err.\");\r\n        require(members[msg.sender] == true, \"members err.\");\r\n        candidates.push(Candidate({name: _name, addr: msg.sender, manifesto: _manifesto, voteCount: 0}));\r\n        passhash[msg.sender] = keccak256(abi.encode(_passhex));\r\n        registerd[msg.sender] = true;\r\n    }\r\n\r\n    function sendToken(address recipient) public {\r\n        transfer(recipient,1);\r\n    }\r\n\r\n    function getCandidatesCount() public view returns (uint) {\r\n        return candidates.length;\r\n    }\r\n\r\n    function vote(address _addr) public {\r\n        require(phase == Phase.Vote, \"phase err.\");\r\n        require(balanceOfMe() != 0, \"token err.\");\r\n        require(voted[msg.sender] == false, \"already voted.\");\r\n        for(uint i = 0; i < candidates.length; i++) {\r\n            if(candidates[i].addr == _addr) {\r\n                candidates[i].voteCount ++;\r\n                voted[msg.sender] = true;\r\n                sendToken(owner);\r\n                return;\r\n            }\r\n        }\r\n    }\r\n\r\n    function countVote() public {\r\n        require(phase == Phase.Result, \"phase err.\");\r\n        uint winCount = 0;\r\n        for(uint i = 0; i < candidates.length; i++) {\r\n            if(candidates[i].voteCount > winCount) {\r\n                winCount = candidates[i].voteCount;\r\n                elected = candidates[i];\r\n            }\r\n        }\r\n    }\r\n\r\n    function getElectedName() public view returns (string memory) {\r\n        return elected.name;\r\n    }\r\n\r\n    function checkPoliticalFundsBalance() public view returns(uint) {\r\n        return address(this).balance;\r\n    }\r\n\r\n    function withdrawPoliticalFunds() public {\r\n        require(elected.addr == msg.sender, \"withdraw only elected err.\");\r\n        msg.sender.transfer(address(this).balance);\r\n    }\r\n\r\n    function charge() payable public{}\r\n}\r\n\r\n",
  "sourcePath": "C:/Users/haunt/floc/truffle/vote/contracts/vote.sol",
  "compiler": {
    "name": "solc",
    "version": "0.5.2+commit.1df8f40c.Emscripten.clang"
  },
  "schemaVersion": "3.0.1",
  "updatedAt": "2020-08-25T01:49:39.537Z",
  "devdoc": {
    "methods": {
      "allowance(address,address)": {
        "details": "See `IERC20.allowance`."
      },
      "approve(address,uint256)": {
        "details": "See `IERC20.approve`.     * Requirements:     * - `spender` cannot be the zero address."
      },
      "balanceOf(address)": {
        "details": "See `IERC20.balanceOf`."
      },
      "decreaseAllowance(address,uint256)": {
        "details": "Atomically decreases the allowance granted to `spender` by the caller.     * This is an alternative to `approve` that can be used as a mitigation for problems described in `IERC20.approve`.     * Emits an `Approval` event indicating the updated allowance.     * Requirements:     * - `spender` cannot be the zero address. - `spender` must have allowance for the caller of at least `subtractedValue`."
      },
      "increaseAllowance(address,uint256)": {
        "details": "Atomically increases the allowance granted to `spender` by the caller.     * This is an alternative to `approve` that can be used as a mitigation for problems described in `IERC20.approve`.     * Emits an `Approval` event indicating the updated allowance.     * Requirements:     * - `spender` cannot be the zero address."
      },
      "totalSupply()": {
        "details": "See `IERC20.totalSupply`."
      },
      "transfer(address,uint256)": {
        "details": "See `IERC20.transfer`.     * Requirements:     * - `recipient` cannot be the zero address. - the caller must have a balance of at least `amount`."
      },
      "transferFrom(address,address,uint256)": {
        "details": "See `IERC20.transferFrom`.     * Emits an `Approval` event indicating the updated allowance. This is not required by the EIP. See the note at the beginning of `ERC20`;     * Requirements: - `sender` and `recipient` cannot be the zero address. - `sender` must have a balance of at least `value`. - the caller must have allowance for `sender`'s tokens of at least `amount`."
      }
    }
  },
  "userdoc": {
    "methods": {}
  }
}